{
  "contractName": "BandToken",
  "abi": [
    {
      "constant": true,
      "inputs": [],
      "name": "totalSupply",
      "outputs": [
        {
          "name": "",
          "type": "uint256"
        }
      ],
      "payable": false,
      "stateMutability": "view",
      "type": "function"
    },
    {
      "inputs": [],
      "payable": false,
      "stateMutability": "nonpayable",
      "type": "constructor"
    }
  ],
  "bytecode": "0x6080604052348015600f57600080fd5b50620f4240600081905550607b806100286000396000f3fe6080604052348015600f57600080fd5b506004361060285760003560e01c806318160ddd14602d575b600080fd5b60336049565b6040518082815260200191505060405180910390f35b6000548156fea165627a7a723058209665e287bce14c418dae030f55fbade9aea9f5005bcc534ddb4d06ddaa1f8c350029",
  "source": "pragma solidity ^0.5.8;\r\n\r\ncontract BandToken {\r\n    // Constructor\r\n    // Set the total number of tokens\r\n    // Read ---//---\r\n    uint256 public totalSupply;\r\n\r\n    constructor () public {\r\n        totalSupply = 1000000;\r\n    }\r\n}",
  "sourcePath": "I:/bandit-ledger/erc20/contracts/BandToken.sol",
  "compiler": {
    "name": "solc",
    "version": "0.5.8+commit.23d335f2.Emscripten.clang"
  },
  "schemaVersion": "3.0.9",
  "updatedAt": "2019-05-22T19:05:04.203Z",
  "devdoc": {
    "methods": {}
  },
  "userdoc": {
    "methods": {}
  }
}